{
  "_format": "hh-sol-artifact-1",
  "contractName": "MultiSig",
  "sourceName": "contracts/MultiSig.sol",
  "abi": [
    {
      "inputs": [
        {
          "internalType": "address",
          "name": "_owner1",
          "type": "address"
        },
        {
          "internalType": "address",
          "name": "_owner2",
          "type": "address"
        }
      ],
      "stateMutability": "nonpayable",
      "type": "constructor"
    },
    {
      "anonymous": false,
      "inputs": [
        {
          "indexed": false,
          "internalType": "address",
          "name": "_to",
          "type": "address"
        },
        {
          "indexed": false,
          "internalType": "address",
          "name": "_from",
          "type": "address"
        },
        {
          "indexed": false,
          "internalType": "uint256",
          "name": "_amount",
          "type": "uint256"
        }
      ],
      "name": "NewInitiateTransaction",
      "type": "event"
    },
    {
      "anonymous": false,
      "inputs": [
        {
          "indexed": false,
          "internalType": "address",
          "name": "_to",
          "type": "address"
        },
        {
          "indexed": false,
          "internalType": "uint256",
          "name": "_amount",
          "type": "uint256"
        }
      ],
      "name": "NewWithdraw",
      "type": "event"
    },
    {
      "inputs": [
        {
          "internalType": "uint256",
          "name": "_id",
          "type": "uint256"
        }
      ],
      "name": "approveTransaction",
      "outputs": [],
      "stateMutability": "nonpayable",
      "type": "function"
    },
    {
      "inputs": [],
      "name": "getBalance",
      "outputs": [
        {
          "internalType": "uint256",
          "name": "",
          "type": "uint256"
        }
      ],
      "stateMutability": "view",
      "type": "function"
    },
    {
      "inputs": [],
      "name": "getTransactions",
      "outputs": [
        {
          "components": [
            {
              "internalType": "address payable",
              "name": "to",
              "type": "address"
            },
            {
              "internalType": "uint256",
              "name": "amount",
              "type": "uint256"
            },
            {
              "internalType": "bool",
              "name": "signedByOwnerOne",
              "type": "bool"
            },
            {
              "internalType": "bool",
              "name": "signedByOwnerTwo",
              "type": "bool"
            }
          ],
          "internalType": "struct MultiSig.Transaction[]",
          "name": "",
          "type": "tuple[]"
        }
      ],
      "stateMutability": "view",
      "type": "function"
    },
    {
      "inputs": [],
      "name": "id",
      "outputs": [
        {
          "internalType": "uint256",
          "name": "",
          "type": "uint256"
        }
      ],
      "stateMutability": "view",
      "type": "function"
    },
    {
      "inputs": [
        {
          "internalType": "address payable",
          "name": "_to",
          "type": "address"
        },
        {
          "internalType": "uint256",
          "name": "_amount",
          "type": "uint256"
        }
      ],
      "name": "initiateTransaction",
      "outputs": [
        {
          "internalType": "uint256",
          "name": "",
          "type": "uint256"
        }
      ],
      "stateMutability": "nonpayable",
      "type": "function"
    },
    {
      "inputs": [],
      "name": "owner1",
      "outputs": [
        {
          "internalType": "address",
          "name": "",
          "type": "address"
        }
      ],
      "stateMutability": "view",
      "type": "function"
    },
    {
      "inputs": [],
      "name": "owner2",
      "outputs": [
        {
          "internalType": "address",
          "name": "",
          "type": "address"
        }
      ],
      "stateMutability": "view",
      "type": "function"
    },
    {
      "inputs": [
        {
          "internalType": "uint256",
          "name": "",
          "type": "uint256"
        }
      ],
      "name": "transactions",
      "outputs": [
        {
          "internalType": "address payable",
          "name": "to",
          "type": "address"
        },
        {
          "internalType": "uint256",
          "name": "amount",
          "type": "uint256"
        },
        {
          "internalType": "bool",
          "name": "signedByOwnerOne",
          "type": "bool"
        },
        {
          "internalType": "bool",
          "name": "signedByOwnerTwo",
          "type": "bool"
        }
      ],
      "stateMutability": "view",
      "type": "function"
    },
    {
      "stateMutability": "payable",
      "type": "receive"
    }
  ],
  "bytecode": "0x60806040523480156200001157600080fd5b50604051620010ec380380620010ec83398181016040528101906200003791906200012a565b816000806101000a81548173ffffffffffffffffffffffffffffffffffffffff021916908373ffffffffffffffffffffffffffffffffffffffff16021790555080600160006101000a81548173ffffffffffffffffffffffffffffffffffffffff021916908373ffffffffffffffffffffffffffffffffffffffff160217905550505062000171565b600080fd5b600073ffffffffffffffffffffffffffffffffffffffff82169050919050565b6000620000f282620000c5565b9050919050565b6200010481620000e5565b81146200011057600080fd5b50565b6000815190506200012481620000f9565b92915050565b60008060408385031215620001445762000143620000c0565b5b6000620001548582860162000113565b9250506020620001678582860162000113565b9150509250929050565b610f6b80620001816000396000f3fe60806040526004361061007f5760003560e01c806383920e901161004e57806383920e90146101355780639ace38c214610160578063af640d0f146101a0578063c3fa3acf146101cb57610086565b806312065fe01461008b578063242232d1146100b657806352709725146100df578063736889141461010a57610086565b3661008657005b600080fd5b34801561009757600080fd5b506100a0610208565b6040516100ad9190610abb565b60405180910390f35b3480156100c257600080fd5b506100dd60048036038101906100d89190610b07565b610210565b005b3480156100eb57600080fd5b506100f46103b2565b6040516101019190610b75565b60405180910390f35b34801561011657600080fd5b5061011f6103d8565b60405161012c9190610b75565b60405180910390f35b34801561014157600080fd5b5061014a6103fc565b6040516101579190610cdf565b60405180910390f35b34801561016c57600080fd5b5061018760048036038101906101829190610b07565b6104f1565b6040516101979493929190610d1f565b60405180910390f35b3480156101ac57600080fd5b506101b561056b565b6040516101c29190610abb565b60405180910390f35b3480156101d757600080fd5b506101f260048036038101906101ed9190610d90565b610571565b6040516101ff9190610abb565b60405180910390f35b600047905090565b60008054906101000a900473ffffffffffffffffffffffffffffffffffffffff1673ffffffffffffffffffffffffffffffffffffffff163373ffffffffffffffffffffffffffffffffffffffff1614806102b75750600160009054906101000a900473ffffffffffffffffffffffffffffffffffffffff1673ffffffffffffffffffffffffffffffffffffffff163373ffffffffffffffffffffffffffffffffffffffff16145b6102c057600080fd5b60038054905081106102d157600080fd5b60008054906101000a900473ffffffffffffffffffffffffffffffffffffffff1673ffffffffffffffffffffffffffffffffffffffff163373ffffffffffffffffffffffffffffffffffffffff16036103675760016003828154811061033a57610339610dd0565b5b906000526020600020906003020160020160006101000a81548160ff0219169083151502179055506103a6565b60016003828154811061037d5761037c610dd0565b5b906000526020600020906003020160020160016101000a81548160ff0219169083151502179055505b6103af81610803565b50565b600160009054906101000a900473ffffffffffffffffffffffffffffffffffffffff1681565b60008054906101000a900473ffffffffffffffffffffffffffffffffffffffff1681565b60606003805480602002602001604051908101604052809291908181526020016000905b828210156104e857838290600052602060002090600302016040518060800160405290816000820160009054906101000a900473ffffffffffffffffffffffffffffffffffffffff1673ffffffffffffffffffffffffffffffffffffffff1673ffffffffffffffffffffffffffffffffffffffff168152602001600182015481526020016002820160009054906101000a900460ff161515151581526020016002820160019054906101000a900460ff16151515158152505081526020019060010190610420565b50505050905090565b6003818154811061050157600080fd5b90600052602060002090600302016000915090508060000160009054906101000a900473ffffffffffffffffffffffffffffffffffffffff16908060010154908060020160009054906101000a900460ff16908060020160019054906101000a900460ff16905084565b60025481565b60008060009054906101000a900473ffffffffffffffffffffffffffffffffffffffff1673ffffffffffffffffffffffffffffffffffffffff163373ffffffffffffffffffffffffffffffffffffffff16148061061b5750600160009054906101000a900473ffffffffffffffffffffffffffffffffffffffff1673ffffffffffffffffffffffffffffffffffffffff163373ffffffffffffffffffffffffffffffffffffffff16145b61062457600080fd5b61062c610a60565b83816000019073ffffffffffffffffffffffffffffffffffffffff16908173ffffffffffffffffffffffffffffffffffffffff16815250508281602001818152505060008054906101000a900473ffffffffffffffffffffffffffffffffffffffff1673ffffffffffffffffffffffffffffffffffffffff163373ffffffffffffffffffffffffffffffffffffffff16036106d75760018160400190151590811515815250506106e9565b60018160600190151590811515815250505b600381908060018154018082558091505060019003906000526020600020906003020160009091909190915060008201518160000160006101000a81548173ffffffffffffffffffffffffffffffffffffffff021916908373ffffffffffffffffffffffffffffffffffffffff1602179055506020820151816001015560408201518160020160006101000a81548160ff02191690831515021790555060608201518160020160016101000a81548160ff02191690831515021790555050507f2e0cb4c0be5b0ff40edfd5704c8621d3b0745a1fa1c67aa45c617a8098771f378433856040516107db93929190610e5e565b60405180910390a1600260008154809291906107f690610ec4565b9190505591505092915050565b6003818154811061081757610816610dd0565b5b90600052602060002090600302016001015447101561083557600080fd5b6003818154811061084957610848610dd0565b5b906000526020600020906003020160020160009054906101000a900460ff1680156108a357506003818154811061088357610882610dd0565b5b906000526020600020906003020160020160019054906101000a900460ff165b6108ac57600080fd5b6000600382815481106108c2576108c1610dd0565b5b906000526020600020906003020160010154036108de57600080fd5b600381815481106108f2576108f1610dd0565b5b906000526020600020906003020160000160009054906101000a900473ffffffffffffffffffffffffffffffffffffffff1673ffffffffffffffffffffffffffffffffffffffff166108fc6003838154811061095157610950610dd0565b5b9060005260206000209060030201600101549081150290604051600060405180830381858888f1935050505015801561098e573d6000803e3d6000fd5b506000600382815481106109a5576109a4610dd0565b5b9060005260206000209060030201600101819055507fc0eb7a138362772da4d1d9adfe7f13a30f35b960c48ae439f3afcd4d08e81452600382815481106109ef576109ee610dd0565b5b906000526020600020906003020160000160009054906101000a900473ffffffffffffffffffffffffffffffffffffffff1660038381548110610a3557610a34610dd0565b5b906000526020600020906003020160010154604051610a55929190610f0c565b60405180910390a150565b6040518060800160405280600073ffffffffffffffffffffffffffffffffffffffff168152602001600081526020016000151581526020016000151581525090565b6000819050919050565b610ab581610aa2565b82525050565b6000602082019050610ad06000830184610aac565b92915050565b600080fd5b610ae481610aa2565b8114610aef57600080fd5b50565b600081359050610b0181610adb565b92915050565b600060208284031215610b1d57610b1c610ad6565b5b6000610b2b84828501610af2565b91505092915050565b600073ffffffffffffffffffffffffffffffffffffffff82169050919050565b6000610b5f82610b34565b9050919050565b610b6f81610b54565b82525050565b6000602082019050610b8a6000830184610b66565b92915050565b600081519050919050565b600082825260208201905092915050565b6000819050602082019050919050565b6000610bc782610b34565b9050919050565b610bd781610bbc565b82525050565b610be681610aa2565b82525050565b60008115159050919050565b610c0181610bec565b82525050565b608082016000820151610c1d6000850182610bce565b506020820151610c306020850182610bdd565b506040820151610c436040850182610bf8565b506060820151610c566060850182610bf8565b50505050565b6000610c688383610c07565b60808301905092915050565b6000602082019050919050565b6000610c8c82610b90565b610c968185610b9b565b9350610ca183610bac565b8060005b83811015610cd2578151610cb98882610c5c565b9750610cc483610c74565b925050600181019050610ca5565b5085935050505092915050565b60006020820190508181036000830152610cf98184610c81565b905092915050565b610d0a81610bbc565b82525050565b610d1981610bec565b82525050565b6000608082019050610d346000830187610d01565b610d416020830186610aac565b610d4e6040830185610d10565b610d5b6060830184610d10565b95945050505050565b610d6d81610bbc565b8114610d7857600080fd5b50565b600081359050610d8a81610d64565b92915050565b60008060408385031215610da757610da6610ad6565b5b6000610db585828601610d7b565b9250506020610dc685828601610af2565b9150509250929050565b7f4e487b7100000000000000000000000000000000000000000000000000000000600052603260045260246000fd5b6000819050919050565b6000610e24610e1f610e1a84610b34565b610dff565b610b34565b9050919050565b6000610e3682610e09565b9050919050565b6000610e4882610e2b565b9050919050565b610e5881610e3d565b82525050565b6000606082019050610e736000830186610e4f565b610e806020830185610b66565b610e8d6040830184610aac565b949350505050565b7f4e487b7100000000000000000000000000000000000000000000000000000000600052601160045260246000fd5b6000610ecf82610aa2565b91507fffffffffffffffffffffffffffffffffffffffffffffffffffffffffffffffff8203610f0157610f00610e95565b5b600182019050919050565b6000604082019050610f216000830185610e4f565b610f2e6020830184610aac565b939250505056fea264697066735822122053272906afa7f31d3197ab99bb25df67222cd8ae416f6aa4a2da992bac4b729164736f6c63430008110033",
  "linkReferences": {},
  "deployedLinkReferences": {}
}