{
  "_format": "hh-sol-artifact-1",
  "contractName": "TwoFactor",
  "sourceName": "contracts/TwoFactor.sol",
  "abi": [
    {
      "inputs": [],
      "stateMutability": "nonpayable",
      "type": "constructor"
    },
    {
      "anonymous": false,
      "inputs": [
        {
          "indexed": false,
          "internalType": "address",
          "name": "_to",
          "type": "address"
        },
        {
          "indexed": false,
          "internalType": "address",
          "name": "_from",
          "type": "address"
        },
        {
          "indexed": false,
          "internalType": "uint256",
          "name": "_amount",
          "type": "uint256"
        }
      ],
      "name": "NewInitiateTransaction",
      "type": "event"
    },
    {
      "anonymous": false,
      "inputs": [
        {
          "indexed": false,
          "internalType": "address",
          "name": "_to",
          "type": "address"
        },
        {
          "indexed": false,
          "internalType": "uint256",
          "name": "_amount",
          "type": "uint256"
        }
      ],
      "name": "NewWithdraw",
      "type": "event"
    },
    {
      "inputs": [
        {
          "internalType": "uint256",
          "name": "_id",
          "type": "uint256"
        }
      ],
      "name": "approveTransaction",
      "outputs": [],
      "stateMutability": "nonpayable",
      "type": "function"
    },
    {
      "inputs": [],
      "name": "getBalance",
      "outputs": [
        {
          "internalType": "uint256",
          "name": "",
          "type": "uint256"
        }
      ],
      "stateMutability": "view",
      "type": "function"
    },
    {
      "inputs": [],
      "name": "getTransactions",
      "outputs": [
        {
          "components": [
            {
              "internalType": "address payable",
              "name": "to",
              "type": "address"
            },
            {
              "internalType": "uint256",
              "name": "amount",
              "type": "uint256"
            },
            {
              "internalType": "bool",
              "name": "signedByOwnerOne",
              "type": "bool"
            },
            {
              "internalType": "bool",
              "name": "signedByOwnerTwo",
              "type": "bool"
            },
            {
              "internalType": "bool",
              "name": "success",
              "type": "bool"
            }
          ],
          "internalType": "struct TwoFactor.Transaction[]",
          "name": "",
          "type": "tuple[]"
        }
      ],
      "stateMutability": "view",
      "type": "function"
    },
    {
      "inputs": [],
      "name": "id",
      "outputs": [
        {
          "internalType": "uint256",
          "name": "",
          "type": "uint256"
        }
      ],
      "stateMutability": "view",
      "type": "function"
    },
    {
      "inputs": [
        {
          "internalType": "address payable",
          "name": "_to",
          "type": "address"
        },
        {
          "internalType": "uint256",
          "name": "_amount",
          "type": "uint256"
        }
      ],
      "name": "initiateTransaction",
      "outputs": [
        {
          "internalType": "uint256",
          "name": "",
          "type": "uint256"
        }
      ],
      "stateMutability": "nonpayable",
      "type": "function"
    },
    {
      "inputs": [],
      "name": "owner1",
      "outputs": [
        {
          "internalType": "address",
          "name": "",
          "type": "address"
        }
      ],
      "stateMutability": "view",
      "type": "function"
    },
    {
      "inputs": [],
      "name": "owner2",
      "outputs": [
        {
          "internalType": "address",
          "name": "",
          "type": "address"
        }
      ],
      "stateMutability": "view",
      "type": "function"
    },
    {
      "inputs": [
        {
          "internalType": "uint256",
          "name": "",
          "type": "uint256"
        }
      ],
      "name": "transactions",
      "outputs": [
        {
          "internalType": "address payable",
          "name": "to",
          "type": "address"
        },
        {
          "internalType": "uint256",
          "name": "amount",
          "type": "uint256"
        },
        {
          "internalType": "bool",
          "name": "signedByOwnerOne",
          "type": "bool"
        },
        {
          "internalType": "bool",
          "name": "signedByOwnerTwo",
          "type": "bool"
        },
        {
          "internalType": "bool",
          "name": "success",
          "type": "bool"
        }
      ],
      "stateMutability": "view",
      "type": "function"
    },
    {
      "stateMutability": "payable",
      "type": "receive"
    }
  ],
  "bytecode": "0x608060405234801561001057600080fd5b5073d5322d50306678192dfe85ca9d062d3e0d7acaa96000806101000a81548173ffffffffffffffffffffffffffffffffffffffff021916908373ffffffffffffffffffffffffffffffffffffffff16021790555073f9e13e516794d2e65ac0da67a4dfb2a593ab8061600160006101000a81548173ffffffffffffffffffffffffffffffffffffffff021916908373ffffffffffffffffffffffffffffffffffffffff160217905550611019806100c96000396000f3fe60806040526004361061007f5760003560e01c806383920e901161004e57806383920e90146101355780639ace38c214610160578063af640d0f146101a1578063c3fa3acf146101cc57610086565b806312065fe01461008b578063242232d1146100b657806352709725146100df578063736889141461010a57610086565b3661008657005b600080fd5b34801561009757600080fd5b506100a0610209565b6040516100ad9190610b48565b60405180910390f35b3480156100c257600080fd5b506100dd60048036038101906100d89190610b94565b610211565b005b3480156100eb57600080fd5b506100f46103b3565b6040516101019190610c02565b60405180910390f35b34801561011657600080fd5b5061011f6103d9565b60405161012c9190610c02565b60405180910390f35b34801561014157600080fd5b5061014a6103fd565b6040516101579190610d7f565b60405180910390f35b34801561016c57600080fd5b5061018760048036038101906101829190610b94565b61050d565b604051610198959493929190610dbf565b60405180910390f35b3480156101ad57600080fd5b506101b661059a565b6040516101c39190610b48565b60405180910390f35b3480156101d857600080fd5b506101f360048036038101906101ee9190610e3e565b6105a0565b6040516102009190610b48565b60405180910390f35b600047905090565b60008054906101000a900473ffffffffffffffffffffffffffffffffffffffff1673ffffffffffffffffffffffffffffffffffffffff163373ffffffffffffffffffffffffffffffffffffffff1614806102b85750600160009054906101000a900473ffffffffffffffffffffffffffffffffffffffff1673ffffffffffffffffffffffffffffffffffffffff163373ffffffffffffffffffffffffffffffffffffffff16145b6102c157600080fd5b60038054905081106102d257600080fd5b60008054906101000a900473ffffffffffffffffffffffffffffffffffffffff1673ffffffffffffffffffffffffffffffffffffffff163373ffffffffffffffffffffffffffffffffffffffff16036103685760016003828154811061033b5761033a610e7e565b5b906000526020600020906003020160020160006101000a81548160ff0219169083151502179055506103a7565b60016003828154811061037e5761037d610e7e565b5b906000526020600020906003020160020160016101000a81548160ff0219169083151502179055505b6103b081610863565b50565b600160009054906101000a900473ffffffffffffffffffffffffffffffffffffffff1681565b60008054906101000a900473ffffffffffffffffffffffffffffffffffffffff1681565b60606003805480602002602001604051908101604052809291908181526020016000905b8282101561050457838290600052602060002090600302016040518060a00160405290816000820160009054906101000a900473ffffffffffffffffffffffffffffffffffffffff1673ffffffffffffffffffffffffffffffffffffffff1673ffffffffffffffffffffffffffffffffffffffff168152602001600182015481526020016002820160009054906101000a900460ff161515151581526020016002820160019054906101000a900460ff161515151581526020016002820160029054906101000a900460ff16151515158152505081526020019060010190610421565b50505050905090565b6003818154811061051d57600080fd5b90600052602060002090600302016000915090508060000160009054906101000a900473ffffffffffffffffffffffffffffffffffffffff16908060010154908060020160009054906101000a900460ff16908060020160019054906101000a900460ff16908060020160029054906101000a900460ff16905085565b60025481565b60008060009054906101000a900473ffffffffffffffffffffffffffffffffffffffff1673ffffffffffffffffffffffffffffffffffffffff163373ffffffffffffffffffffffffffffffffffffffff16148061064a5750600160009054906101000a900473ffffffffffffffffffffffffffffffffffffffff1673ffffffffffffffffffffffffffffffffffffffff163373ffffffffffffffffffffffffffffffffffffffff16145b61065357600080fd5b61065b610ae4565b83816000019073ffffffffffffffffffffffffffffffffffffffff16908173ffffffffffffffffffffffffffffffffffffffff168152505082816020018181525050600081608001901515908115158152505060008054906101000a900473ffffffffffffffffffffffffffffffffffffffff1673ffffffffffffffffffffffffffffffffffffffff163373ffffffffffffffffffffffffffffffffffffffff1603610717576001816040019015159081151581525050610729565b60018160600190151590811515815250505b600381908060018154018082558091505060019003906000526020600020906003020160009091909190915060008201518160000160006101000a81548173ffffffffffffffffffffffffffffffffffffffff021916908373ffffffffffffffffffffffffffffffffffffffff1602179055506020820151816001015560408201518160020160006101000a81548160ff02191690831515021790555060608201518160020160016101000a81548160ff02191690831515021790555060808201518160020160026101000a81548160ff02191690831515021790555050507f2e0cb4c0be5b0ff40edfd5704c8621d3b0745a1fa1c67aa45c617a8098771f3784338560405161083b93929190610f0c565b60405180910390a16002600081548092919061085690610f72565b9190505591505092915050565b6003818154811061087757610876610e7e565b5b90600052602060002090600302016001015447101561089557600080fd5b600381815481106108a9576108a8610e7e565b5b906000526020600020906003020160020160009054906101000a900460ff1680156109035750600381815481106108e3576108e2610e7e565b5b906000526020600020906003020160020160019054906101000a900460ff165b61090c57600080fd5b600115156003828154811061092457610923610e7e565b5b906000526020600020906003020160020160029054906101000a900460ff1615150361094f57600080fd5b6003818154811061096357610962610e7e565b5b906000526020600020906003020160000160009054906101000a900473ffffffffffffffffffffffffffffffffffffffff1673ffffffffffffffffffffffffffffffffffffffff166108fc600383815481106109c2576109c1610e7e565b5b9060005260206000209060030201600101549081150290604051600060405180830381858888f193505050501580156109ff573d6000803e3d6000fd5b50600160038281548110610a1657610a15610e7e565b5b906000526020600020906003020160020160026101000a81548160ff0219169083151502179055507fc0eb7a138362772da4d1d9adfe7f13a30f35b960c48ae439f3afcd4d08e8145260038281548110610a7357610a72610e7e565b5b906000526020600020906003020160000160009054906101000a900473ffffffffffffffffffffffffffffffffffffffff1660038381548110610ab957610ab8610e7e565b5b906000526020600020906003020160010154604051610ad9929190610fba565b60405180910390a150565b6040518060a00160405280600073ffffffffffffffffffffffffffffffffffffffff168152602001600081526020016000151581526020016000151581526020016000151581525090565b6000819050919050565b610b4281610b2f565b82525050565b6000602082019050610b5d6000830184610b39565b92915050565b600080fd5b610b7181610b2f565b8114610b7c57600080fd5b50565b600081359050610b8e81610b68565b92915050565b600060208284031215610baa57610ba9610b63565b5b6000610bb884828501610b7f565b91505092915050565b600073ffffffffffffffffffffffffffffffffffffffff82169050919050565b6000610bec82610bc1565b9050919050565b610bfc81610be1565b82525050565b6000602082019050610c176000830184610bf3565b92915050565b600081519050919050565b600082825260208201905092915050565b6000819050602082019050919050565b6000610c5482610bc1565b9050919050565b610c6481610c49565b82525050565b610c7381610b2f565b82525050565b60008115159050919050565b610c8e81610c79565b82525050565b60a082016000820151610caa6000850182610c5b565b506020820151610cbd6020850182610c6a565b506040820151610cd06040850182610c85565b506060820151610ce36060850182610c85565b506080820151610cf66080850182610c85565b50505050565b6000610d088383610c94565b60a08301905092915050565b6000602082019050919050565b6000610d2c82610c1d565b610d368185610c28565b9350610d4183610c39565b8060005b83811015610d72578151610d598882610cfc565b9750610d6483610d14565b925050600181019050610d45565b5085935050505092915050565b60006020820190508181036000830152610d998184610d21565b905092915050565b610daa81610c49565b82525050565b610db981610c79565b82525050565b600060a082019050610dd46000830188610da1565b610de16020830187610b39565b610dee6040830186610db0565b610dfb6060830185610db0565b610e086080830184610db0565b9695505050505050565b610e1b81610c49565b8114610e2657600080fd5b50565b600081359050610e3881610e12565b92915050565b60008060408385031215610e5557610e54610b63565b5b6000610e6385828601610e29565b9250506020610e7485828601610b7f565b9150509250929050565b7f4e487b7100000000000000000000000000000000000000000000000000000000600052603260045260246000fd5b6000819050919050565b6000610ed2610ecd610ec884610bc1565b610ead565b610bc1565b9050919050565b6000610ee482610eb7565b9050919050565b6000610ef682610ed9565b9050919050565b610f0681610eeb565b82525050565b6000606082019050610f216000830186610efd565b610f2e6020830185610bf3565b610f3b6040830184610b39565b949350505050565b7f4e487b7100000000000000000000000000000000000000000000000000000000600052601160045260246000fd5b6000610f7d82610b2f565b91507fffffffffffffffffffffffffffffffffffffffffffffffffffffffffffffffff8203610faf57610fae610f43565b5b600182019050919050565b6000604082019050610fcf6000830185610efd565b610fdc6020830184610b39565b939250505056fea2646970667358221220cbe145778a1615c0756e442146bd1aa2d448e662f4bfc32a85c52767a329f38f64736f6c63430008110033",
  "linkReferences": {},
  "deployedLinkReferences": {}
}